:020000040800F2
:10000000402000200D0200084B1900086518000868
:1000100049190008A30700082D1E00080000000071
:100020000000000000000000000000004F19000860
:10003000A5070008000000004D190008511900082C
:1000400027020008270200082702000827020008EC
:1000500027020008270200082702000827020008DC
:1000600027020008270200082702000827020008CC
:1000700027020008270200082702000827020008BC
:1000800027020008270200082702000827020008AC
:10009000270200082702000827020008270200089C
:1000A000270200082702000827020008270200088C
:1000B000270200082702000827020008270200087C
:1000C000270200082702000827020008270200086C
:1000D000270200082702000827020008270200085C
:1000E000270200082702000827020008270200084C
:1000F000270200082702000827020008270200083C
:10010000270200082702000827020008270200082B
:10011000270200082702000827020008270200081B
:10012000270200082702000827020008270200080B
:1001300027020008270200082702000827020008FB
:1001400027020008270200082702000827020008EB
:1001500027020008270200082702000827020008DB
:1001600027020008270200082702000827020008CB
:1001700027020008270200082702000800000000EC
:1001800027020008270200082702000827020008AB
:10019000270200082702000827020008270200089B
:1001A000270200082702000827020008270200088B
:1001B000270200082702000827020008270200087B
:1001C000270200082702000800000000270200089C
:1001D000270200082702000827020008270200085B
:1001E000270200082702000827020008270200084B
:1001F0002702000827020008DFF80CD000F050FAB0
:1002000000480047E52700084020002006488047B6
:1002100006480047FEE7FEE7FEE7FEE7FEE7FEE7EB
:10022000FEE7FEE7FEE7FEE7F1190008F901000826
:100230002DE9F05F0546002092469B46884606461B
:10024000814640241BE0284641464746224600F0AE
:100250005EF853465A46C01A914110D311461846CB
:10026000224600F045F82D1A67EB01084F4622465A
:100270000120002100F03CF817EB00094E41201E40
:10028000A4F10104DFDC484631462A464346BDE876
:10029000F09FD2B201E000F8012B491EFBD270475B
:1002A0000022F6E710B513460A4604461946FFF742
:1002B000F0FF204610BD421C10F8011B0029FBD1A5
:1002C000801A704730B50B460146002020220124D9
:1002D00009E021FA02F59D4205D303FA02F5491B14
:1002E00004FA02F52844151EA2F10102F1DC30BD2A
:1002F000202A04DB203A00FA02F1002070479140E6
:10030000C2F1200320FA03F3194390407047202ADA
:1003100004DB203A21FA02F00021704721FA02F3AF
:10032000D040C2F1200291400843194670472DE9A0
:10033000FE4F804681EA0300C00F0C46009021F07A
:10034000004123F00045B8EB0200A94105D2404628
:10035000214690461C460B46024623F000401043BF
:1003600047D0270DC7F30A00C3F30A510290401A81
:10037000019040286BDAC3F3130040F4801B00980F
:10038000924620B10023D2EB030A63EB0B0B0198DA
:100390005946C0F140025046FFF7AAFF06460D46F7
:1003A00050465946019A00F08DF910EB0800614162
:1003B000002487EA115284EAE7731A4340D0009A76
:1003C00062B3019A012A4FEA075215DC001B61EB68
:1003D00002014FF0004202EA0752CDE90042001C40
:1003E00041F5801132462B4600F08DF903B0BDE88F
:1003F000F08F40462146F9E7001B61EB0201001C2B
:1004000041F5801300185B412018A2F5001747EB57
:10041000030140EAD570B6196D4111E06D084FEA4D
:10042000360645EAC0754FEA0752001B61EB020130
:10043000001C41F5801149084FEA30000019514174
:1004400032462B4603B0BDE8F04F00F04DB900989E
:10045000012240000023D0EB020263EBE07300981E
:1004600021464FEAE074B8EB000061EB0401E9E7D4
:1004700083F000435BE781F0004158E72DE9FE4F30
:1004800081EA030404F0004421F0004100944FF09D
:10049000000B23F0004350EA01045ED052EA03044B
:1004A0005BD0C3F30A54C1F30A552C44A4F2F334CD
:1004B0000194A0FB0254C1F3130141F48011C3F372
:1004C000130343F4801301FB024400FB034E840A30
:1004D000970A44EA815447EA8357A4FB07680295C8
:1004E0008D0A05FB07854FEA932C04FB0C54270566
:1004F000029D4FEA065847EA1637B5EB08056EEB42
:10050000070C870E920E47EA811742EA8312A7FB77
:100510000201B6EB0B0164EB00042B0D43EA0C3334
:100520005E1844EB1C50DA465146E7FB0201C5F366
:1005300013044FEA0B3343EA14534FEA0432019C8D
:1005400043EA0603A4F10C040294009CCDE900B434
:1005500000F0D9F803B0BDE8F08F00200146F9E7BC
:100560002DE9F04D81EA030404F0004B21F0004531
:1005700014464FF0000A23F0004150EA050220D053
:1005800054EA01021DD0C5F30A570246C5F313030E
:10059000C1F31300C1F30A5640F4801543F48013ED
:1005A000A7EB0608101BD64608F2FD3873EB0500D2
:1005B00002D308F1010801E092185B41B8F1000F85
:1005C00003DA00200146BDE8F08D00204FF48011D1
:1005D000064684460EE0171B73EB050705D3121B76
:1005E00063EB050306434CEA010C49084FEA30006F
:1005F00092185B4150EA0107EDD152EA030012D094
:1006000082EA040083EA0501084305D0101BAB41D0
:1006100006D20122002306E000224FF0004302E050
:100620006FF0010253101AEB06004CEB085110EB6F
:100630000A0041EB0B01BDE8F04D00F055B8C1F3E5
:100640000A52C1F3130140F2FF3341F480119A4280
:1006500002DA00200146704740F233439A42A2F288
:10066000334202DC5242FFF752BEFFF741BE0000A8
:1006700030B5041E71F1000404DB4FF00044404229
:1006800064EB0101141E73F1000405DB1C464FF0FE
:100690000043524263EB0403994208BF904230BDCD
:1006A000064C074D06E0E06840F0010394E80700BF
:1006B00098471034AC42F6D3FFF7A2FD702C000827
:1006C000902C0008202A06DBCB17203A41FA02F0D2
:1006D00043EAE07306E041FA02F3D040C2F120029F
:1006E000914008431946704710B5141E73F1000479
:1006F00008DA401C41F1000192185B411A4301D114
:1007000020F0010010BD2DE9F04D92469B4611B13D
:10071000B1FA81F202E0B0FA80F220329046FFF79F
:10072000E7FD04460F4640EA0A0041EA0B01534642
:100730005A46084313D0114653EA010019D0C8F1B4
:1007400040025046FFF7E3FD05460E465046594627
:100750004246FFF7CDFD084305D0012004E02046C6
:100760003946BDE8F08D0020054346EAE0762C438B
:1007700037430A986305E40AA0EB08000022FD0A4B
:1007800044EA47540A3002D500200146E9E7010552
:1007900010196941DDE9084500196941BDE8F04DCE
:1007A000A2E7FEE7704770472DE9F84F00224FF0AF
:1007B00001094FF0030A4FF00F0E00BF0B6809FA52
:1007C00002F42340A34270D14D68012D05D0022DC3
:1007D00003D0112D01D0122D11D185685700CE689C
:1007E0000AFA07FC25EA0C05BE402E4386604568E0
:1007F0000E79A543C6F3001696402E434660C568A1
:1008000056008F680AFA06F4A543B7402F43C76025
:100810004D68022D01D0122D12D1D5080F694FEA73
:10082000427C00EB8505AB462D6A4FEADC6C0EFA84
:100830000CF807FA0CF725EA08052F43CBF82070CF
:100840000D79076805F00305A743B5403D430560F2
:100850004C68E40074D53D4C256845F4804525601E
:10086000246822F00307960704F480440094384C6F
:10087000360F2744D7F80848DFF8D8C00EFA06F537
:10088000604524EA050401D100252EE0324DA8423E
:1008900001D1012529E0314DA84201D1022524E0F2
:1008A0002F4DA84202D103251FE049E02D4DA8425B
:1008B00001D1042519E02C4DA84201D1052514E0F1
:1008C0002A4DA84201D106250FE0294DA84201D1A9
:1008D00007250AE0274DA84201D1082505E0264D4D
:1008E000A84201D1092500E00A25B540234E254341
:1008F000C7F808584D683468ED0324EA030400D5AE
:100900001C431E4D34602D1D4E682C68B60324EA2E
:10091000030400D51C43194E2C6008364D6834681A
:10092000ED0224EA030400D51C43144D34600C3559
:100930004E682C68B60224EA030400D51C432C60E0
:10094000521C102AFFF43AAFBDE8F88F4438024039
:100950000030014000000240000402400008024054
:10096000000C024000100240001402400018024037
:10097000001C02400020024000240240003C0140D4
:100980000AB1816170470904FBE7000001488068F3
:100990007047000038000020024881680278114446
:1009A0008160704738000020032010B500F060F827
:1009B000002000F005F800F023F8002010BD000032
:1009C00070B50D4D04464FF47A700C4A29781268C0
:1009D000B0FBF1F0B2FBF0F000F0F8FD48B9102CDC
:1009E00007D200222146501E00F022F800206C6041
:1009F00070BD012070BD00003800002044000020C0
:100A00000A4808B5016841F080510160006800F0B3
:100A1000805000900548001D016841F4804101604C
:100A2000006800F48040009008BD0000403802409B
:100A30000E4BF0B41B680D46C3F30223C3F1070647
:100A4000042E00D90426191D072901D2002300E035
:100A5000DB1E012404FA06F19C40491E2940641E55
:100A6000994014402143F0BC01F0F6B90CED00E0D0
:100A7000064900F0070210B54FF6FF040868044B62
:100A8000204040EA02201843086010BD0CED00E051
:100A90000000FA05BFF34F8F0548064A016801F4CC
:100AA000E06111430160BFF34F8F00BFFDE700001D
:100AB0000CED00E00400FA051848F8B5016841F0B3
:100AC000805101600068164C00F080500090206852
:100AD00040F480302060FFF759FF4FF47A760546E6
:100AE00005E000BFFFF752FF401BB0420FD860681F
:100AF000C003F7D5206840F400302060FFF746FFC0
:100B0000054606E0FFF742FF401BB04201D9032033
:100B1000F8BD60688003F5D50020F8BD403802407C
:100B2000007000402DE9F84F04460078DFF8249467
:100B30004FF000063746C0070ED0D9F8001021F458
:100B40000001C9F80010D9F80010626B1143C9F810
:100B50000010606B00B90126FE4D2068843500034B
:100B60000ED5E16B286820F4401008432860E06B44
:100B7000B0F5801F01D010B102E0012600E001278E
:100B800020684FF4800BC0020CD5216C286820F43B
:100B9000400008432860206C584501D1012601E03F
:100BA00000B901272068C10100D50126800666D55D
:100BB000E8483830016841F0805101600068DFF892
:100BC00098A300F080500090DAF8001041F4807192
:100BD000CAF80010FFF7DAFE804605E0FFF7D6FE00
:100BE000A0EB080064287DD8DAF80000C005F5D530
:100BF000DFF8608308F16808D8F8000010F440704E
:100C00002AD0218E01F44071814225D0D8F80010FD
:100C1000D8F8002021F4407142F48032C8F8002056
:100C2000D8F8002022F48032C8F80020C8F800105C
:100C3000D8F80000C0070FD0FFF7A8FE824607E0F3
:100C4000FFF7A4FEA0EB0A0141F288308142CAD826
:100C5000D8F800008007F3D5206BC0F301210329E9
:100C60007ED0D9F8001021F4F811C9F80010228EB6
:100C7000D8F80010C2F30B021143C8F80010207816
:100C8000C00607D5286820F0807028602868A16B0E
:100C9000084328602188AF488830490405D5626E32
:100CA000016821F44031114301602188090405D510
:100CB000A26E016821F44021114301602168C9033B
:100CC00005D5E26E016821F44011114301602168ED
:100CD000890305D5226F016821F4400111430160A9
:100CE000217800E034E1490605D5626C016821F005
:100CF0000301114301602178090605D5A26C016842
:100D000021F00C01114301602188C90505D5E26C71
:100D1000016821F03001114301602188890505D562
:100D2000226D016821F0C00111430160218849054D
:100D300005D5626D016821F440711143016021887D
:100D4000090505D5A26D016821F4406111430160D8
:100D50002188C90407D5E26D016821F4405100E003
:100D60005FE0114301602188890405D5226E016886
:100D700021F44041114301602168490205D5A26F69
:100D8000016821F080611143016021684FF0006A21
:100D9000890209D5E26F016821F000611143016009
:100DA000E16F514500D1012721680A0700D50127CD
:100DB000490305D5626F016821F04071114301605C
:100DC0002168090206D5D4F88020016821F08051FD
:100DD000114301602168490106D5D4F884200168D7
:100DE00021F00051114301602068000106D5D4F8BC
:100DF0008810286820F00070084328602068C00030
:100E000006D5D4F88C10286820F08060084328604C
:100E1000DFF84891012E0ED02068B0F1007F0AD093
:100E20008FE04F4AD9F80030104023F4F812024303
:100E3000C9F800201BE7D9F800004E4620F080607A
:100E4000C9F80000FFF7A2FD804605E0FFF79EFD10
:100E5000A0EB080064287BD830680001F6D4217824
:100E60003C487C30C90712D0616B81B9237A626833
:100E70000168D0F800C09201C1F3014142EA014289
:100E8000CCF3036142EA016141EA03710160216828
:100E90000A0303D5E26BB2F5801F04D0C9021AD54C
:100EA000216C594517D16368016894F80CC0026839
:100EB0009B01C1F3014143EA0141C2F3027241EADD
:100EC0000C6141EA027101602968626A21F01F0128
:100ED000521E114329602168C90110D5238A626816
:100EE0000168D0F800C09201C1F3036142EA0342F5
:100EF00042EA0162CCF3027142EA017101602168A9
:100F000089010CD56168228A237B94F808C0890185
:100F100041EA024141EA036141EA0C710160316832
:100F2000B04641F080613160FFF730FD064604E0D5
:100F3000FFF72CFD801B64280AD8D8F800000001B8
:100F4000F6D5E7B3D9F800004E4620F0805009E00E
:100F50007BE000000838024000700040003802408A
:100F6000FFFCFF0FC9F80000FFF710FD074604E083
:100F7000FFF70CFDC01B642867D83068C0438000B1
:100F8000F6D5216835480A0301D5E26B1AB1C902CA
:100F90001DD5216CD9B963690168277E02689B0160
:100FA000C1F3014143EA0143C2F3027143EA07621C
:100FB00042EA0171016029686FF0FF0300E04BE035
:100FC000A26A21F4F85103EB02221143296021683F
:100FD000890212D5E16F51450FD1238C62690168F6
:100FE00007689201C1F3036142EA034242EA0162E7
:100FF000C7F3027142EA017101602178090716D531
:1010000061690268D0F800C08B01277FC2F30362D8
:10101000CCF3014143EA014141EA026141EA07712F
:1010200001602868E16A20F4403008432860306895
:1010300040F080503060FFF7A9FC044608E000BF94
:10104000FFF7A4FC001B642802D90320BDE8F88F39
:101050003068C0438000F3D40020F7E788380240AE
:101060002DE9F04705000F4663D0444E306800F08C
:101070000F00B84209D2306820F00F0038433060CA
:10108000306800F00F00B84253D128683C4C81070B
:1010900012D5400703D5206840F4E050206028783E
:1010A000000703D5206840F460402060A9682068EC
:1010B00020F0F000084320602878C0072AD030498B
:1010C00068680839012810D00968022810D08907FB
:1010D00000292EDA216821F0030101432160FFF786
:1010E00055FC804641F288390DE009688903EFE735
:1010F0008901EDE7FFF74AFCA0EB0801494502D959
:101100000320BDE8F0876868216801F00C01B1EBAD
:10111000800FEFD1306800F00F00B8420BD9306873
:1011200020F00F0038433060306800F00F00B84204
:1011300001D00120E5E72878400705D5E968206857
:1011400020F4E050084320602878000706D528697D
:10115000216821F4604141EAC000206000F038F8C5
:101160002168084AC1F30311515CC8400649086070
:1011700006480068FFF724FC0020C2E7003C02405C
:1011800008380240562C0008440000203C00002093
:101190000449054809680068044AC1F38221515C8A
:1011A000C84070470838024044000020662C000800
:1011B0000449054809680068044AC1F34231515C9A
:1011C000C84070470838024044000020662C0008E0
:1011D000154910B51548096811F00C0213D01449CF
:1011E000042A0FD0082A0ED10F4C241F226823682E
:1011F00002F03F025B0207D52068C0F38810A0FB15
:10120000010106E0084610BD2168C1F38811A1FB69
:1012100000010023FFF70CF82168C1F30141491CCC
:101220004900B0FBF1F010BD083802400024F40082
:1012300040787D012DE9F84F04004FF000076ED093
:101240002078DFF87CA3AAF10408C007A8F1040500
:101250004CD0DAF800105046C1F38101012908D0C2
:101260000068C0F3810002280AD1D8F800004002CB
:1012700006D52868800339D560680028DFD035E0BE
:101280006068B0F5803F0BD010B1B0F5A02F11D041
:10129000286820F480302860286820F4802002E04C
:1012A000286840F480302860606890B1FFF76EFBDA
:1012B00006460AE0286840F480202860F0E700BF76
:1012C000FFF764FB801B642872D828688003F7D579
:1012D0000CE0FFF75BFB064605E000BFFFF756FB9F
:1012E000801B6428F0D828688003F7D42078800712
:1012F00042D5DAF80010504611F00C0F08D0006803
:10130000C0F3810002280BD1D8F80000400207D4B6
:101310002868800718D5E068012800D114E04AE168
:10132000E0680028286817D040F001002860FFF727
:101330002DFB064605E000BFFFF728FB801B0228B7
:10134000C2D828688007F7D52069296821F0F801FC
:1013500041EAC00028600FE020F001002860FFF79C
:1013600015FB064605E000BFFFF710FB801B0228B7
:101370001ED828688007F7D42078000729D5904820
:1013800061696C3000298146016812D041F0010189
:101390000160FFF7FBFA064605E000BFFFF7F6FA2B
:1013A000801B022804D8D9F800008007F6D510E089
:1013B00089E021F001010160FFF7E8FA064604E048
:1013C000FFF7E4FA801B02287DD8D9F800008007D7
:1013D000F6D4207840076BD5DFF8E49109F138099D
:1013E000D9F80000C0000BD4D9F8001041F08051AA
:1013F000C9F80010D9F80000012700F080500090D3
:1014000070480168C90512D40168834641F48071AF
:101410000160FFF7BBFA064605E000BFFFF7B6FA2A
:10142000801B64284FD8DBF80000C005F6D5644E59
:10143000A068683601280AD008B1052811D03068A4
:1014400020F001003060306820F0040002E03068D5
:1014500040F001003060A068A0B1FFF797FA834622
:101460000CE0306840F004003060F0E7FFF78EFADF
:10147000A0EB0B0141F28830814268D830688007C8
:10148000F4D50EE0FFF782FA834607E0FFF77EFA15
:10149000A0EB0B0141F28830814258D830688007B8
:1014A000F4D42FB1D9F8001021F08051C9F8001000
:1014B000A069E0B3DAF80010C1F3810102294DD030
:1014C0000228286800E042E020F08070286003D005
:1014D000FFF75CFA04463DE0FFF758FA064604E0E1
:1014E000FFF754FA801B022831D828688001F7D40E
:1014F000D4E90921DFF8D0C0D4E9070694F83030E8
:101500004F0894F82C1030430CEB074444EA821245
:10151000104340EA016040EA0370C8F80000286800
:1015200040F080702860FFF731FA044605E044E09F
:10153000FFF72CFA001B022809D828688001F7D58C
:101540003BE000BFFFF722FA001B022802D903206C
:10155000BDE8F88F28688001F4D42EE00128D8F87F
:10156000000028D0E16900F480028A4223D1216A78
:1015700000F03F028A421ED1626A47F6C071014004
:10158000B1EB821F17D1A16A4FF0FF3200F4403354
:1015900002EB5101B3EB014F0DD194F82C1000F088
:1015A0007062B2EB016F06D194F8301000F0E040A9
:1015B000B0EB017F01D00120CAE70020C8E700009E
:1015C00008380240007000400000FFFF401EB0F1EC
:1015D000807F10B501D3012010BD4FF0E024606181
:1015E0000F21601700F038FC0020A0610721216165
:1015F00010BD10B5040002D0606F10B107E00120EB
:1016000010BD002084F87000204600F025F824204A
:1016100060672068016821F001010160204600F048
:1016200085FA0128ECD0606A10B1204600F0EEF98E
:101630002068416821F4904141602068816821F070
:101640002A0181602068016841F0010101602046A3
:10165000BDE8104000F03EBA10B586B00446142133
:101660006846FEF71DFE1249206888421ED11148C7
:10167000016841F480210160006800F48020059039
:101680000C481038016841F008010160006802212F
:10169000002200F008000590032307244FF4407057
:1016A0008DE81F0004486946FFF77EF806B010BDBC
:1016B0000048004040380240000C02402DE9F84F3D
:1016C0000446806F9A4616460D4620286BD1EDB130
:1016D000E6B194F87000012865D0012284F87020EA
:1016E00022214FF00008C4F87C80A167FFF74EF973
:1016F0008146A068A4F858604FF48053A4F85A605B
:10170000FF21984208D122691AB11DE00120BDE8ED
:10171000F88F40F2FF1117E04FF07F0290B1B0F167
:10172000805F14D0A4F85C809842B4F85C7001D15A
:10173000206998B12E460025404607F0FF0884F83E
:10174000700024E0266936B9A4F85C10ECE7216942
:1017500009B13F21F8E7A4F85C20E5E70026EBE7B4
:1017600000224B4620212046CDF800A000F00CFBC3
:1017700008B10320CBE72068406A86B100EA080080
:1017800006F8010BB4F85A00401EA4F85A00B4F849
:101790005A000028E4D12020A0670020B7E7384095
:1017A00025F8020BEEE70220B1E700002DE9F8432F
:1017B0000446406F1F4616460D46202850D1CDB135
:1017C000C6B194F8700001284AD0012084F8700056
:1017D00021224FF00008C4F87C806267FFF7D6F83A
:1017E0008146A068A4F85060A4F85260B0F5805F0C
:1017F00003D004E00120BDE8F883206928B12E461B
:101800005FF0000584F8708010E00026FAE7802180
:10181000204600F0B9FAB8B9C6B116F8010B216834
:101820008862B4F85200401EA4F85200B4F8520086
:101830004B464FF0000200970028E8D14FF04001DE
:10184000204600F0A1FA38B10320D4E735F8020BA6
:101850002168C0F30800E3E7202060670020CAE7A2
:101860000220C8E7FEE7000070B586B01421684684
:10187000FEF716FD2248016841F00401016001688D
:1018800001F004010591016841F0800101600168E7
:1018900001F080010591016841F0020101600168D9
:1018A00001F002010591016841F008010160016841
:1018B00001F008010591016841F001010160006833
:1018C00044F281050F4E002200F0010029460590E8
:1018D0003046FFF755F8002469464FF40050029453
:1018E000CDE900040848FEF75FFF01200095CDE92F
:1018F0000104694630460394FEF756FF06B070BDFA
:101900003038024000040240000802400D48002127
:1019100010B50B4C0C224FF4E1330460C0E90131E7
:10192000C160C0E904128161C16101624162FFF7D7
:1019300060FE002803D0BDE81040FEF734BF10BDA4
:1019400000480040C01B0020FEE77047704770470A
:10195000FFF722B830B5B7B0342124A8FEF7A0FCB9
:10196000142131A8FEF79CFC90216846FEF798FCF4
:101970001D48016841F080510160006800F080500E
:1019800036901A48016841F4404101600068002522
:101990000DF1B00C022424940822D823CDE92A4565
:1019A00000F44040369010218CE81C0001202F9458
:1019B000CDE9270124A8FFF73DFCFFF77DF8E202FF
:1019C0004FF4A0510F20CDE9341231AA072182E84B
:1019D000310031A8FFF744FBE00113950090684601
:1019E000FFF7A0F837B030BD40380240007000402B
:1019F00005484FF000610368034A43F47003036035
:101A0000803A11607047000088ED00E090F82410E3
:101A1000C90706D00168836A4A6822F400321A4373
:101A20004A6090F82410890706D50168C36A4A689D
:101A300022F480321A434A6090F82410490706D5F0
:101A40000168036B4A6822F480221A434A6090F8C6
:101A50002410090706D50168436B4A6822F4004246
:101A60001A434A6090F82410C90606D50168836BB2
:101A70008A6822F480521A438A6090F824108906FA
:101A800006D50168C36B8A6822F400521A438A6043
:101A900090F82410490611D50168036C4A6822F4B5
:101AA00080121A434A60016CB1F5801F06D10168AB
:101AB000436C4A6822F4C0021A434A6090F824102A
:101AC000090606D50168826C486820F4002010439E
:101AD00048607047F8B500260446C667FEF756FF13
:101AE000054620686FF07E470068000708D5002291
:101AF0002B464FF400112046009700F045F960B9DD
:101B00002068006840070AD500222B464FF4800168
:101B10002046009700F038F908B10320F8BD2020D6
:101B2000606784F87060A0670020F8BD2DE9F0417F
:101B300004468068DFF820C2884F2368D4E9045245
:101B4000E16928431E6800250A438549104306EAD7
:101B50000C0606431E604FF400422068E6684368A6
:101B600023F44053334343602368A669206AD3F8C3
:101B700008C030432CF4306606439E602068B842AB
:101B80000AD1086810F0030052D001287BD0022847
:101B90007AD003286ED186E0724B98420AD1086849
:101BA00010F00C0079D004287BD0082877D00C28BE
:101BB00060D178E06C4B98420AD1086810F0300090
:101BC0006BD010286DD0202869D0302852D16AE01F
:101BD000664B98420AD1086810F0C0005DD04028DA
:101BE0005FD080285BD0C02844D15CE0604B984235
:101BF0000DD1086810F440704FD0B0F5807F50D000
:101C0000B0F5007F4BD0B0F5407F33D14BE0594B5E
:101C100098420FD1086810F4406009D0B0F5806F89
:101C20003FD0B0F5006F3AD0B0F5406F22D13AE026
:101C3000012120E0504B98420DD1086810F440502B
:101C40002BD0B0F5805F2CD0B0F5005F27D0B0F579
:101C5000405F0FD127E0494B98420BD1086810F440
:101C600040401AD0B0F5804F1BD0904217D0B0F54D
:101C7000404F18D01021E0694FF6EF7690423AD1EC
:101C8000092961D202E00CE009E006E0DFE801F09A
:101C90000D10255C285C5C5C2B000021EBE7022129
:101CA000E9E70421E7E70821E5E7FFF771FA01E03A
:101CB000FFF77EFA6168400000EB5100B0FBF1F0E5
:101CC00080B2A0F11001B1423ED84FF6F073216806
:101CD000C0F342021840104326E02949606805E03D
:101CE000FFF776FAE6E760684FF4803101EB5001C8
:101CF000B1FBF0F0E4E7092926D2DFE801F005089E
:101D000017251C2525251F00FFF742FA01E0FFF7E4
:101D10004FFA616800EB5100B0FBF1F080B2A0F126
:101D20001001B14210D82168C8600EE06068154902
:101D300001EB500105E0FFF74BFAEAE7606802EBC0
:101D40005001B1FBF0F0E9E7012500202066606654
:101D50002846BDE8F0810000F369FFEF0010014064
:101D6000903802400044004000480040004C0040D1
:101D7000005000400014014000780040007C00400A
:101D80000048E8010024F4002DE9F0479A46174680
:101D90000E460446089D4FF000094FF0200839E038
:101DA000681C37D0FEF7F2FDA0EB0A00A84222D84B
:101DB0000DB32068016849072CD5C069C0430005F0
:101DC00028D423684FF40061196221680B6823F45A
:101DD000D0730B6021688B6823F001038B60C4F81B
:101DE0007480C4F87880C4F87C8000BF032084F835
:101DF0007090BDE8F08721680B6823F4D0730B6006
:101E000021688B6823F001038B60C4F87480C4F8E8
:101E10007880EBE72068C06936EA000004D0002033
:101E2000B842BDD00020E4E70120F9E7FEE700005A
:101E30000FB4084B10B504A902AA039800F0EEF8FD
:101E4000044602A9002000F080FC204610BC5DF88A
:101E500014FB00004B270008090700284FEA116116
:101E600004DB00F1E02080F80014704700F00F0060
:101E700000F1E02080F8141D704702E008C8121F2E
:101E800008C1002AFAD170477047002001E001C163
:101E9000121F002AFBD170472DE9FF5F82B000219D
:101EA000DDE90430020DDDF840B0034318D044F6FC
:101EB0001050A2F2FF3242431514119801281FD08E
:101EC000A5EB0B00401C5FEA000A4FF000064E4FE6
:101ED000DFF83891B046504615D5CAF1000413E03A
:101EE000119801244AA3012801D16FEA0B0102983D
:101EF000119AC0E90031C0E9024206B0BDE8F09F86
:101F0000CBF10000DFE704460021404A491842EBCC
:101F10000450CDE9001012E0E00707D032463B46FE
:101F200040464946FEF7AAFA8046894632463B4675
:101F300010461946FEF7A2FA06460F466410002C1A
:101F4000EAD1DDE90401DDE90023BAF1000F06DA88
:101F5000FEF794FA42464B46FEF790FA05E0FEF78C
:101F6000FFFA42464B46FEF7FBFA04460E460022B5
:101F7000284BFEF77DFB03D84FF0FF30014607E00A
:101F80000022254B20463146FEF7D1F9FEF757FBDC
:101F9000102409E0002C0ADB0A220023FEF748F98E
:101FA000039B30321A55641E50EA0102F2D1641CC0
:101FB000039AC4F111031444119A012A03D0012297
:101FC00008430DD10AE0084304D000204FF0110B64
:101FD000119072E7A3EB0B056D1E0DE05B4504DD70
:101FE0004FF0000205F1010504E003DA4FF00002B2
:101FF000A5F10105002AECD002981199C0E902313F
:10200000C0E9004579E70000000014400000F03FFF
:10201000300000000000F0430000E03F2DE9FF4FDA
:1020200095B09B468946064600250FE2252877D1C4
:1020300000242746F84A0121059400E0044316F8DD
:10204000013F203B01FA03F01042F7D130782A28F3
:1020500011D06FF02F033078A0F13002092A16D882
:10206000059A44F0020402EB820203EB42021044A0
:10207000761C0590EFE759F8042B0592002A03DA45
:10208000504244F40054059044F00204761C307829
:102090002E2816D116F8010F44F004042A280DD07A
:1020A0006FF02F023078A0F13003092B09D807EB2D
:1020B000870302EB4303C718761CF3E759F8047B48
:1020C000761C30786C280FD006DC4C2817D0682896
:1020D0000DD06A2814D104E0742810D07A280FD1CA
:1020E0000DE044F400140AE044F4801401E044F4E8
:1020F00040147278824202D104F58014761C761C5A
:10210000307866280BD013DC582877D009DC0028FB
:1021100075D04528F6D04628F4D047281AD19DE13D
:1021200018E0632835D0642879D0652812D195E16C
:10213000702873D008DC6728F1D069286FD06E282A
:102140000DD06F2806D1B5E073282CD0752875D036
:10215000782874D05A46179990476D1C75E1C4F3DE
:102160000250022809D003280DD0D9F80010042805
:102170000DD00D6009F1040967E1D9F80010EA17E4
:10218000C1E90052F6E7D9F800100D80F2E70D70B2
:10219000F0E719F8041B8DF8001000208DF80100FD
:1021A000EA46012003E059F804AB4FF0FF30610725
:1021B0004FF0000102D40DE008F101018846B94258
:1021C0000FDA8045F8DB1AF808100029F4D108E08E
:1021D00008F1010188468142FADB1AF8081000294B
:1021E000F6D105985B46A0EB080721463846179ABA
:1021F00000F094FA284400EB080507E04DE029E1DF
:102200000DE01AF8010B5A4617999047B8F10108EA
:10221000F7D25B4621463846179A13E142E00A227C
:102220000092C4F302524FF0000A022A08D059F873
:1022300004CB032A4FEAEC710AD00DE029E02AE032
:1022400009F1070121F00702F2E802C1914609E015
:102250000FFA8CFC4FEAEC71042A03D14FFA8CFC84
:102260004FEAEC71002907DA0A460021DCF1000C84
:1022700061EB02012D2202E0220504D52B228DF80C
:102280000420012203E0E20701D02022F7E7904674
:1022900059E00A2102E010220DE010214FF0000A5F
:1022A00000910BE010224FF0000A44F004040827CC
:1022B000009203E008224FF0000A0092C4F3025299
:1022C000022A05D059F804CB0021032A08D009E0DE
:1022D00009F1070121F00702F2E802C1914605E089
:1022E0001FFA8CFC042A01D10CF0FF0C4FF00008FF
:1022F000220728D5702806D0009B83F0100353EAEC
:102300000A0305D00EE040228DF80420012208E0E7
:102310005CEA010206D030228DF804208DF8050019
:1023200002229046009B83F0080353EA0A030AD175
:102330005CEA010201D1620705D530228DF8042044
:102340004FF001087F1E582804D034A003900EA837
:1023500002900DE036A0F9E753466046009AFDF77B
:1023600067FF84460398825C0298401E02900270C8
:102370005CEA0100F0D1029806A9081A00F1200ACF
:10238000600702D524F4803400E00127574502DDC0
:10239000A7EB0A0000E0002000EB0A01009005987E
:1023A0004144401A0590E00306D45B462146179A43
:1023B000059800F0B3F90544002706E001A85A4645
:1023C000C05D179990476D1C7F1C4745F6DBE00305
:1023D0000CD55B462146179A059800F09FF90544F5
:1023E00004E030205A46179990476D1C0099481E0A
:1023F00000900029F5DC08E0029802995A4600781E
:10240000491C0291179990476D1CBAF10001AAF17D
:10241000010AF1DC65E100000928010030313233A6
:102420003435363738396162636465660000000010
:1024300030313233343536373839414243444546FA
:102440000000000000F058F90544761C30780028A0
:102450007FF4ECAD19B02846BDE8F08F620700D4D8
:10246000062709F1070222F0070CFCE80223E146E7
:1024700003F000485FEA080C02D00FF2702C0DE068
:102480005FEA045C02D50FF2682C07E05FEAC47CC7
:1024900002D00FF2602C01E0AFF2700C4FF0FF3869
:1024A00023F00043CDF850C065280CD006DC452849
:1024B00009D046281DD047283DD13DE0662818D0D8
:1024C00067287ED138E00021112F01DB112000E0C8
:1024D000781CCDE9000106A90EA8FFF7DDFCDDE9B7
:1024E0000F010E9A03910021009207F1010A049155
:1024F0004DE04FF000400097CDE9011006A90EA86D
:10250000FFF7CAFCDDE90F0203920E9B119900222E
:10251000DDF80CA00093049211B9791C00EB010ABC
:10252000B7EB0A0004D4C0F1FF3007F1010A0490B0
:10253000AAEB0700019044E0012F00DA01270021F7
:10254000112F01DD112000E03846CDE9000106A978
:102550000EA8FFF7A1FCDDE90F010E9A03910021FF
:1025600004910092BA4621070CD40399514500DA30
:102570008A46BAF1010F05DD009AAAF10101515C0A
:10258000302908D0B84202DA10F1040F06DA01212E
:10259000CDE9011015E0AAF10101E9E7002805DC09
:1025A000049901440491AAEB000102E0411C514549
:1025B00000DD8A460499401A401C01904FF000400B
:1025C0000290200704D40198504501DBCDF8048027
:1025D00000208DF84F0002980DF14F07B0F1004F29
:1025E00025D02B200E9002984FF0020800280CDA1C
:1025F000404202902D200E9007E00A210298FDF73C
:1026000061FE3031029007F8011DB8F10001A8F118
:102610000108F2DC02980028EFD1791E0E980870AC
:10262000307800F0200040F0450007F8020D12A8B5
:10263000C01B00F107081498007800B1012000EBDE
:102640000A01019801EBE07105984144401A401ECF
:102650000590E00306D45B462146179A059800F0E2
:102660005DF805441498007818B15A4617999047B8
:102670006D1CE00324D55B462146179A059800F0AF
:102680004DF805441CE00498002807DBDDE9030150
:10269000884203DD0098405C179901E017993020CB
:1026A0005A469047049805F10105401C0490019892
:1026B000401E019004D12E205A46179990476D1C58
:1026C000BAF10001AAF1010ADDDC05E017F8010BFF
:1026D0005A46179990476D1CB8F10001A8F10108FE
:1026E000F4DC5B462146179A0598ABE62D00000006
:1026F0002B000000200000002DE9F04104460025D9
:102700001E461746880404D405E039462020B04709
:102710006D1C641EF9D52846BDE8F0812DE9F04115
:10272000044600251E469046C80301D5302700E028
:102730002027880404D505E041463846B0476D1C83
:10274000641EF9D52846BDE8F0810A68531C0B6069
:102750001070704730389FED130A0A2808D2DFE85E
:1027600000F00705080B0E1114171A1DB7EE000A2A
:102770007047B0EE000A7047B0EE080A7047B1EE3D
:10278000000A7047B1EE040A7047B1EE080A7047BC
:10279000B1EE0C0A7047B2EE000A7047B2EE020AC0
:1027A0007047000000000000A0F1300100200A295D
:1027B00007D2DFE801F0060507090B0D0F1113150D
:1027C00001207047022070470320704704207047A3
:1027D0000520704706207047072070470820704783
:1027E00009207047FEF7E0F8FFF7B4F8FFF73CF870
:1027F000FFF78CF8374E364DDFF8DC8006F11E040B
:10280000344936481E3100F06BF80020215C422923
:1028100024D0401C1428F9DD28682044C078FFF734
:10282000C3FF0746286820448078FFF7BDFF00EB10
:10283000800007EB4001083169602A6800231846D0
:1028400087188842E75D375400DB335400F10100FC
:102850001E28F5DB3078422802D023E02860DCE730
:1028600070783746502815D11A491A48503100F06F
:102870003DF8012240468021FEF782F8154850308D
:102880004078FFF767FF05F108011448D1EC030A0F
:1028900000F0C6F87878492804D10022404680210B
:1028A000FEF76EF8E07A4128AAD1207B4128A7D113
:1028B000607B4128A4D1A07B4128A1D1E07B4128A5
:1028C0009ED1207C41289BD1FEF7E4F898E70000D8
:1028D000240000203C1B002000040240C01B0020FC
:1028E00032224FF47A73FEF7E9BE00002DE9F04181
:1028F000474D0346474F00200E460146705478541A
:102900006854491C1429F9DD414C0E3C606160811A
:102910009878FFF749FF6061D878FFF745FFA0611D
:10292000616901EB810100EB41006061421D0421FE
:1029300009E000BF03EB010C07EB0108491C1CF880
:1029400002CC08F804CC9142F4DD002142181A446C
:1029500012796A54491C0329F8DDB846002706E0BD
:1029600008EB070061897F1C807808446081294852
:10297000FDF7A1FC801EB842F2D8608926A100F4C0
:10298000704223480938FFF753FA608922A100F406
:1029900070621F480838FFF74BFAA07A1EA100F0BA
:1029A000F0021B48C01FFFF743FAA07A1AA100F0FB
:1029B0000F021748801FFFF73BFA1548297809389E
:1029C0000078884222D11248697808380078884215
:1029D0001CD10F48A978C01F0078884216D10C4836
:1029E000E978801F0078884210D10C48012244F217
:1029F0000101FDF7C5FF0020414604E00B18321825
:102A0000401C9B78537062699042F7DBBDE8F0810F
:102A10000E0000204800002025780000000402403D
:102A20002DE9F14F814C0020DFF804A20546A4F502
:102A30007A660AF101012DED040B84ED000AC4ED64
:102A4000140A84ED281AC4ED3C1A0870491C087059
:102A5000491C0870491C0870AAF80A0005EB85009B
:102A600005EBC50104EB001090ED000A01EB051029
:102A700070A1B7EEC00A06EB400053EC102BFFF735
:102A8000D7F96D1C032DE9DDDFF8A4B10027B146AD
:102A90000BF10C0B694D07EBC70101EB0716422048
:102AA00005F8160009EB46000446FDF704FC0A2869
:102AB00011D205EB46082046302188F80110FDF7B9
:102AC000FAFB421C5A485EA10C30FFF7B1F99BF8A3
:102AD000001088F802102046FDF7EDFB0A2810D3FD
:102AE0002046FDF7E8FB421C514855A10C30FFF78A
:102AF0009FF905EB46019BF800204A709BF8010006
:102B000088705023EB70562085F8350049215222F9
:102B100085F86710A84685F89920002505E008EBA0
:102B20004600615D28446D1C01712046FDF7C3FB22
:102B3000401EA842F3D200250AE000BF08EB460180
:102B4000BAF80A2029446D1CC9781144AAF80A1061
:102B50002046FDF7B0FBA842F0D2BAF80A0039A12E
:102B600000F470423248401CFFF762F9BAF80A00DC
:102B700034A100F470622E48801CFFF759F99AF8CE
:102B80000A0030A100F0F0022948C01CFFF750F9FC
:102B90009AF80A002BA100F00F022548001DFFF74C
:102BA00047F92046FDF787FB214908EB46052844F5
:102BB000491C0A7802712046FDF77DFB1C49284418
:102BC000891C097841712046FDF775FB1849284496
:102BD000C91C097881712046FDF76DFB1449284412
:102BE0007F1C091D0A780021C271032FAAF80A1060
:102BF0007FF750AF0020044600EBC00202EB00104C
:102C000008EB400504E0295D049800F01DF8641C01
:102C10002846FDF750FB401EA042F4D2049805B0B0
:102C20000A21BDE8F04F00F00FB80000CC170020DB
:102C300000000020252E336600000000E413002071
:102C4000256400002578000013B5012301A91A4668
:102C5000FEF7ACFD1CBD00000000000000000102FA
:102C60000304060708090000000001020304000035
:102C7000902C000800000020480000007A1E000888
:102C8000D82C000848000020F81F00008A1E000809
:102C90000000000000000000000000000000000034
:102CA0000000000000000000000000000000000024
:102CB0000000000000000000000000000000000014
:102CC000000000400000F040010000001000000083
:082CD000000000000024F400E4
:04000005080001F9F5
:00000001FF
